{"abi":[{"type":"constructor","inputs":[{"name":"priceFeed","type":"address","internalType":"address"}],"stateMutability":"nonpayable"},{"type":"fallback","stateMutability":"payable"},{"type":"receive","stateMutability":"payable"},{"type":"function","name":"MINIMUM_USD","inputs":[],"outputs":[{"name":"","type":"uint256","internalType":"uint256"}],"stateMutability":"view"},{"type":"function","name":"cheaperWithdraw","inputs":[],"outputs":[],"stateMutability":"nonpayable"},{"type":"function","name":"fund","inputs":[],"outputs":[],"stateMutability":"payable"},{"type":"function","name":"getVersion","inputs":[],"outputs":[{"name":"","type":"uint256","internalType":"uint256"}],"stateMutability":"view"},{"type":"function","name":"getaddresstoamount","inputs":[{"name":"funding","type":"address","internalType":"address"}],"outputs":[{"name":"","type":"uint256","internalType":"uint256"}],"stateMutability":"view"},{"type":"function","name":"getfunder","inputs":[{"name":"index","type":"uint256","internalType":"uint256"}],"outputs":[{"name":"","type":"address","internalType":"address"}],"stateMutability":"view"},{"type":"function","name":"getowner","inputs":[],"outputs":[{"name":"","type":"address","internalType":"address"}],"stateMutability":"view"},{"type":"function","name":"withdraw","inputs":[],"outputs":[],"stateMutability":"nonpayable"},{"type":"error","name":"Not__Owner","inputs":[]}],"bytecode":{"object":"0x60a060405234801561001057600080fd5b5060405161095538038061095583398101604081905261002f91610058565b33608052600280546001600160a01b0319166001600160a01b0392909216919091179055610088565b60006020828403121561006a57600080fd5b81516001600160a01b038116811461008157600080fd5b9392505050565b6080516108a46100b1600039600081816101810152818161032e015261047501526108a46000f3fe60806040526004361061007f5760003560e01c80636b69a5921161004e5780636b69a59214610141578063b60d42881461008e578063be2693f01461015d578063fe0174bd146101725761008e565b80630d8e6e2c146100965780631460a2b5146100be5780633726102d146100f45780633ccfd60b1461012c5761008e565b3661008e5761008c6101a5565b005b61008c6101a5565b3480156100a257600080fd5b506100ab610280565b6040519081526020015b60405180910390f35b3480156100ca57600080fd5b506100ab6100d93660046106e3565b6001600160a01b031660009081526020819052604090205490565b34801561010057600080fd5b5061011461010f36600461070c565b6102f3565b6040516001600160a01b0390911681526020016100b5565b34801561013857600080fd5b5061008c610323565b34801561014d57600080fd5b506100ab674563918244f4000081565b34801561016957600080fd5b5061008c61046a565b34801561017e57600080fd5b507f0000000000000000000000000000000000000000000000000000000000000000610114565b600254674563918244f40000906101c69034906001600160a01b03166105ae565b10156102195760405162461bcd60e51b815260206004820152601b60248201527f596f75206e65656420746f207370656e64206d6f72652045544821000000000060448201526064015b60405180910390fd5b336000908152602081905260408120805434929061023890849061073b565b90915550506001805480820182556000919091527fb10e2d527612073b26eecdfd717e6a320cf44b4afac2b0732d9fcbe2b7fa0cf60180546001600160a01b03191633179055565b6002546040805163054fd4d560e41b815290516000926001600160a01b0316916354fd4d509160048083019260209291908290030181865afa1580156102ca573d6000803e3d6000fd5b505050506040513d601f19601f820116820180604052508101906102ee919061074e565b905090565b60006001828154811061030857610308610767565b6000918252602090912001546001600160a01b031692915050565b336001600160a01b037f0000000000000000000000000000000000000000000000000000000000000000161461036c576040516371fdbeab60e01b815260040160405180910390fd5b60005b6001548110156103c25760006001828154811061038e5761038e610767565b60009182526020808320909101546001600160a01b03168252819052604081205550806103ba8161077d565b91505061036f565b5060408051600081526020810191829052516103e091600191610669565b50604051600090339047908381818185875af1925050503d8060008114610423576040519150601f19603f3d011682016040523d82523d6000602084013e610428565b606091505b50509050806104675760405162461bcd60e51b815260206004820152600b60248201526a10d85b1b0819985a5b195960aa1b6044820152606401610210565b50565b336001600160a01b037f000000000000000000000000000000000000000000000000000000000000000016146104b3576040516371fdbeab60e01b815260040160405180910390fd5b60015460005b8181101561050a576000600182815481106104d6576104d6610767565b60009182526020808320909101546001600160a01b03168252819052604081205550806105028161077d565b9150506104b9565b50604080516000815260208101918290525161052891600191610669565b50604051600090339047908381818185875af1925050503d806000811461056b576040519150601f19603f3d011682016040523d82523d6000602084013e610570565b606091505b50509050806105aa5760405162461bcd60e51b815260206004820152600660248201526519985a5b195960d21b6044820152606401610210565b5050565b6000806105ba836105e6565b90506000670de0b6b3a76400006105d18684610796565b6105db91906107ad565b925050505b92915050565b600080826001600160a01b031663feaf968c6040518163ffffffff1660e01b815260040160a060405180830381865afa158015610627573d6000803e3d6000fd5b505050506040513d601f19601f8201168201806040525081019061064b91906107ee565b505050915050806402540be400610662919061083e565b9392505050565b8280548282559060005260206000209081019282156106be579160200282015b828111156106be57825182546001600160a01b0319166001600160a01b03909116178255602090920191600190910190610689565b506106ca9291506106ce565b5090565b5b808211156106ca57600081556001016106cf565b6000602082840312156106f557600080fd5b81356001600160a01b038116811461066257600080fd5b60006020828403121561071e57600080fd5b5035919050565b634e487b7160e01b600052601160045260246000fd5b808201808211156105e0576105e0610725565b60006020828403121561076057600080fd5b5051919050565b634e487b7160e01b600052603260045260246000fd5b60006001820161078f5761078f610725565b5060010190565b80820281158282048414176105e0576105e0610725565b6000826107ca57634e487b7160e01b600052601260045260246000fd5b500490565b805169ffffffffffffffffffff811681146107e957600080fd5b919050565b600080600080600060a0868803121561080657600080fd5b61080f866107cf565b9450602086015193506040860151925060608601519150610832608087016107cf565b90509295509295909350565b80820260008212600160ff1b8414161561085a5761085a610725565b81810583148215176105e0576105e061072556fea2646970667358221220fc5e08e669661e2b54b92d79a84c11863da8e8f990a556b279f679155dfc42c864736f6c63430008130033","linkReferences":{}},"methodIdentifiers":{"MINIMUM_USD()":"6b69a592","cheaperWithdraw()":"be2693f0","fund()":"b60d4288","getVersion()":"0d8e6e2c","getaddresstoamount(address)":"1460a2b5","getfunder(uint256)":"3726102d","getowner()":"fe0174bd","withdraw()":"3ccfd60b"},"id":30}